:020000040800F2
:10000000F0FF0120BDC2050851DF0008D116040829
:1000100035C3050835C3050835C3050800000000D1
:100020000000000000000000000000004DDF00089C
:1000300049DF00080000000045DF0008351704080C
:1000400035C3050835C3050835C3050835C305089C
:1000500035C3050835C305083D9D0408059D040802
:10006000CD9C0408959C04085D9C040885AD05089A
:1000700075AD050865AD050855AD050841AD050828
:100080002DAD050819AD050835C3050800000000B1
:10009000000000000000000000000000259C040893
:1000A00071020408C102040861020408E90204089C
:1000B000B1020408A10204089102040835C305082E
:1000C00035C3050835C3050835C3050835C305081C
:1000D00035C305088D51040835C30508000000002C
:1000E000ED9B040835C30508090C01080000000059
:1000F00000000000000000000000000005AD050841
:100100000000000035C305088102040835C3050856
:1001100000000000000000000000000000000000DF
:10012000F1AC0508DDAC0508C9AC0508B5AC05089F
:10013000A1AC050800000000000000000000000065
:10014000000000000000000000000000EDFE0008BC
:100150008DAC050879AC050865AC050835C3050804
:1001600035C3050835C30508000000000000000085
:10017000000000000000000000000000000000007F
:100180000000000035C3050800000000000000006A
:0801900035C3050835C305085D
:080198005CBE0500010000003F
:1001A00013020100040000004C2A00208C6900208A
:1001B000000000005CF00608031101000A000000C6
:1001C000882E00209069002000000000D91001084E
:1001D0000D1001001C0000005C5A00209C690020EA
:1001E000000000009BF80308090201000100000064
:1001F00090680020B86900200000000060F0060848
:10020000FD0101001E000000E4590020BC6900202F
:100210000000000047F80308FB0101000100000096
:1002200024550020DC69002000000000652005083E
:10023000FC01010009000000F0530020E0690020EB
:100240000000000075200508F7010100060000000D
:10025000E4530020EC6900200000000062F0060872
:10026000F901010004000000E0530020F4690020BF
:1002700000000000E5870408160215003F0000009A
:100280008C2C0020F8690020000000005D2105088A
:10029000340001001000000010530020386A0020D4
:1002A00000000000AD4E020811020100080000002D
:1002B000E8520020486A00200000000068F00608AC
:1002C0001212010004000000E0520020506A0020D9
:1002D0000000000070F00608183001003400000033
:1002E000AC520020546A002000000000CD21050817
:1002F000000201000B000000304F0020886A00203F
:100300000000000089130508FA0101000300000045
:1003100028480020946A0020000000004D130508C2
:100320002A02010008000000103D0020986A002009
:100330000000000074F006082052010008000000D0
:100340006C3B0020A06A0020000000008130020801
:100350000610010024000000A82B0020A86A00203D
:1003600000000000912005080C02010004000000BC
:1003700024340020CC6A002000000000351305085A
:10038000FE01010014000000FC5F0020D06A002084
:1003900000000000F11205081B2001000C00000005
:1003A000F099002054AD002000000000319D0108AC
:1003B00021020100F00000000898002060AD00203C
:1003C00000000000C93901083710010030000000AA
:1003D00070AA002050AE0020000000007CF006084B
:1003E0000E02010002000000689E002080AE002086
:1003F00000000000ACF00608161001000600000026
:10040000609E002084AE002000000000AEF00608D0
:100410002F1001002200000030AD00208CAE002023
:1004200000000000B4F006082322010010000000C4
:10043000D09D0020B0AE002000000000D8F00608DB
:100440001E00010009000000B89D0020C0AE002081
:1004500000000000E8F00608052001000C00000084
:10046000449E0020CCAE002000000000F4F00608FE
:10047000FD0701007C000000BE960020D8AE0020E1
:1004800000000000BD150108F59101006C0000009E
:100490008C97002054AF002000000000ED380108C8
:1004A0002320010010000000D2A90020C0AF0020CE
:1004B00000000000F51A02081230010010000000D0
:1004C000A09D0020D0AF00200000000000F1060831
:1004D0000B3001001A000000A496002010B000208C
:1004E0000000000010F106081F5001002400000069
:1004F000089A00202CB00020000000002CF1060813
:100500000502010004000000709E002050B0002091
:100510000000000050F10608140001000500000072
:1005200030D4002054D400200000000054F106080C
:10053000012001000C000000C0C700205CD4002096
:10054000000000005AF106080C400600E40000001C
:10055000E4C5002068D4002000000000A182030848
:100560000A90010024000000A0C500204CD5002006
:1005700000000000AD1A02080E300300BC010000AC
:10058000DCC3002070D50020000000009930020874
:100590001310010004000000D8D100202CD7002047
:1005A0000000000068F106080101010004000000DD
:1005B00014C3002030D7002000000000000000001D
:1005C00000010100040000000CC3002034D700200B
:1005D000000000006CF106080201010003000000A9
:1005E00008C3002038D7002000000000E182030883
:1005F000220201001C010000C0CF00203CD70020D7
:100600000000000015210508010201000B00000098
:1006100020C3002058D800200000000079130508EE
:10062000020201000300000048C8002064D8002036
:1006300000000000000000001B020100100000008C
:1006400014C8002068D8002000000000F913050835
:100650001A0001000E00000054E6002084E600208D
:100660000000000070F10608150010007000000086
:1006700074E4002094E60020000000000000000068
:100680002A0008006000000084E3002004E7002046
:1006900000000000593002082C0004001000000087
:1006A00074E7002064E7002000000000212E02080B
:1006B0002B00120024000000A8E7002084E700209F
:1006C00000000000F52D0208292014007800000029
:1006D00068E00020CCE700200000000000000000DF
:1006E00019020100100000000CE0002044E8002086
:1006F0000000000059130508F62101000C0000005D
:10070000FCDE002054E800200000000080F1060814
:100710001C0202001C00000014DF0020A4E80020DE
:10072000000000004D1C0508F83101000600000023
:1007300004EA002014EF0020000000008CF10608FD
:10074000030001000100000014EA00201CEF00205B
:100750000000000000000000101001000200000076
:1007600000ED002020EF00200000000092F10608BC
:100770001900010005000000C0E8002024EF00205F
:100780000000000094F10608020001000C000000C7
:10079000FCF20020B8F4002000000000000000007F
:1007A00025201E002C01000008F30020C4F40020C6
:1007B00000000000000000002902010040000000CD
:1007C0005CF10020F0F50020000000009AF106081E
:1007D0002C02010004000000E0F2002030F60020AE
:1007E00000000000DAF106080A020100140000000F
:1007F000C4F1002054F60020000000007D850308AD
:100800001F02080010000000E4FC0020AC000120E2
:1008100000000000191305081A0201003C00000046
:100820007CF60020BC000120000000002922050801
:10083000031201003D00000070FC0020F8000120C0
:1008400000000000DEF1060838200100030000006F
:1008500074F6002038010120000000001CF2060898
:100860000400080080000000E00101206002012077
:100870000000000000000000081203000F0000004C
:10088000C4010120E00201200000000091130508CE
:100890002802040004000000C0010120F002012031
:1008A00000000000F5130508270204000400000002
:1008B000BC010120F402012000000000E91305083A
:1008C0002B0201000C00000088030120A80F01206A
:1008D0000000000020F206081D02020006000000D1
:1008E000280E0120B80F01200000000000000000C9
:1008F0002700010004000000A40801204015012089
:10090000000000002CF206081002010001000000A7
:100910003C450120384501200000000030F2060867
:100920000403090412010002EF020140830456325D
:100930000002010203010000120100020202004055
:100940008304405700020102030100000902200055
:10095000010104C032090400000208065005070521
:100960008102400000070501024000000902640006
:10097000030100C032090400000103000000092146
:10098000110100012236000705830309000A080B44
:100990000102020201000904010001020201000536
:1009A000240010010524010002042402020524068B
:1009B0000102070582030800FF09040200020A0081
:1009C0000000070501024000000705810240000009
:1009D00009024300020100C03209040000010202C2
:1009E0000100052400100105240100010424020275
:1009F0000524060001070582030800FF0904010021
:100A0000020A0000000705010240000007058102FC
:100A100040000000FF000000140000FF0000000084
:100A200000000000AA5507010000AA5505010000BA
:100A30002D202D2D202D2D2D2D202D2D2D2D000067
:100A4000000000000000000000000000000000089E
:100A5000DCE60508FF1FFF1F7D0000006D83000816
:100A600069830008658300085983000855830008DE
:100A7000618300085D830008010000000000803FE2
:100A800005010905A101A10005010930093109325B
:100A9000093309350934093609371581257F750869
:100AA00095088102050919012908150025019508F5
:100AB00075018102C0C0000009022200010100E0AE
:100AC00032090400000103010200092111010001A3
:100AD0002236000705830309000A00000060024077
:100AE0001060024000000000000000000000000054
:100AF000000B0000000000000000000000000000EB
:100B00000060024028600240010000000000000078
:100B100000000000060C00000000000000000000C3
:100B2000000000000060024040600240020000003F
:100B30000000000000000000100D00000000000098
:100B40000000000000000000006002405860024009
:100B5000030000000000000000000000160E00006E
:100B600000000000000000000000000000600240E3
:100B7000706002400400000000000000000000005F
:100B8000200F000000000000000000000000000036
:100B90000060024088600240050000000000000084
:100BA000000000002610000000000000000000000F
:100BB0000000000000600240A0600240060000004B
:100BC00000000000000000003011000000000000E4
:100BD000000000000000000000600240B860024019
:100BE000070000000000000000000000362F000099
:100BF000000000000000000000000000006402404F
:100C0000106402400000000000000000000000002E
:100C1000003800000000000000000000000000009C
:100C2000006402402864024001000000000000004F
:100C30000000000006390000000000000000000075
:100C40000000000000640240406402400200000016
:100C50000000000000000000103A0000000000004A
:100C600000000000000000000064024058640240E0
:100C7000030000000000000000000000163B000020
:100C800000000000000000000000000000640240BE
:100C9000706402400400000000000000000000003A
:100CA000203C0000000000000000000000000000E8
:100CB000006402408864024005000000000000005B
:100CC00000000000264400000000000000000000BA
:100CD0000000000000640240A06402400600000022
:100CE000000000000000000030450000000000008F
:100CF000000000000000000000640240B8640240F0
:100D00000700000000000000000000003646000060
:100D100000000000000000000000000000000000D3
:100D200001020304010203040607080939E9000867
:100D300011F1000889EC000869840008B5860008F4
:100D400079840008958400084184000831840008F3
:100D50000000000000000000AA550B010000AA5589
:100D600005010000AA550902000000AA5503009FD2
:100D700001000000C012000001010000000001FF9E
:100D8000FFFFFFFF7EFF0000FFFFFFFF08B0002016
:100D900000000000E0AF0020000000000101FF01A2
:100DA000E00101008992010800000000000000003D
:100DB00008EE050808FF0000000000000000000029
:100DC00000000000440506080000000000000000CC
:100DD00000000000FC050608000000000000000004
:100DE00000000000A8050608000000000000000048
:100DF000B9AD0108E2CA002001010000F9E70108CD
:100E00000000000000000000C40606085DEB0108B9
:100E100000000000000000007C0606082D202D2D9B
:100E2000202D2D2D2D202D2D2D0000000000000047
:100E3000000000000000000000000000FFFFFFFFB6
:100E400021B801080000000000000000D4040608DA
:100E500001000000FA000000010000000100000095
:100E60002AC700200000F4010100000028C700206C
:100E70000000F4010100000026C700200000F4017A
:100E80000100000024C700200000F4010100000060
:100E900022C700200000F4010100000020C700204C
:100EA0000000F401010000001EC700200000F40152
:100EB00001000000459B0108099B0108000000009B
:100EC00074EF05080EC70020053201001CC7002082
:100ED0006400F401010000001AC700206400C40986
:100EE000010000000CC70020E803D007010000004B
:100EF0000AC70020E803D0070100000008C700204F
:100F0000E803D0070100000006C700201E00B80B50
:100F10000100000014C7002005000F0001000000C0
:100F200016C7002003000A000100000004C70020CB
:100F30001E00F4010100000018C70020020000009C
:100F400000F0050802C70020140064000100000042
:100F500010C700203200E8030100000000C7002095
:100F60000000C80001000000E1C5002000C8010029
:100F7000E0C5002000500100DFC50020005A01003C
:100F8000DDC500200200000068EF0508286B060898
:100F9000306B0608E0CA00200100C4090000000010
:100FA000DECA00200100C40900000000DCCA0020E5
:100FB0000100C40900000000DACA00200100C409D1
:100FC00000000000D6CA00200100C4090000000093
:100FD000D8CA00200100C40900000000D4CA0020C3
:100FE0000100C40900000000D2CA00200100C409A9
:100FF0000000000041C3002000C8010040C30020E1
:1010000000C801003EC300200000FFFF0A000000EE
:101010003CC300200100C800010000003AC30020CA
:10102000320030753200000038C300207EFF14000B
:101030000500000036C3002005002C01050000005B
:1010400034C30020055A050031C3002000FF010011
:1010500033C3002002000000040800202FC300203A
:10106000030000001CE8050830C3002000FF010059
:1010700032C3002002000000040800202EC300201C
:10108000030000001CE8050880C20020FF7F01006B
:101090007CC2002000000000FFFFFFFF01000000F5
:1010A00078C2002000000000FFFFFFFF01000000E9
:1010B00074C2002000000000FFFFFFFF01000000DD
:1010C000999A0108299A01080000000050F00508CB
:1010D000D0C70020EE02CA0801000000CEC70020E1
:1010E00000C8010064000000CDC7002000C8010056
:1010F00064000000CCC70020020000000CF00508CE
:101100001AC300200000803E0500000018C3002024
:1011100080C1803E0500000012C300200083007DD6
:101120000500000010C3002080C1803E05000000C3
:101130000BC3002000FF010004C300206400F40181
:101140000100000002C300206400F401010000005F
:1011500000C300206400F40101000000FEC2002072
:10116000040000005CF10508FDC200200200000040
:1011700070F10508CDC300200D0000007CF10508CA
:10118000CAC3002000640100C8C300203200102739
:101190000A000000C6C300200D0000007CF1050815
:1011A000C5C300200D0000007CF10508C4C3002069
:1011B0000200000018F00508000000000000000018
:1011C00000000000B4F10508D5C70020460000006B
:1011D000ECF10508D3C700200300000008F3050860
:1011E000D4C700200400000024F00508CFC300206D
:1011F0000300000018F30508CEC300200300000020
:1012000018F30508CEC50020000A0100CCC5002057
:101210000000E80301000000CAC500200000E80348
:1012200001000000C8C50020000A0100C6C500205A
:101230000000E80301000000C4C500200000E8032E
:101240000100000098C50020C800E803010000006C
:101250009EC500203C00FA00010000009CC5002053
:101260000100E803010000009AC50020000501000C
:10127000DCC500200200000038F00508DAC50020B7
:101280000000F40101000000D8C500200000F401B6
:1012900001000000D6C500200000F401010000009C
:1012A000D4C500200000F40101000000D2C50020D8
:1012B0000000E80301000000D0C500200000E803A2
:1012C00001000000EEC60020006401000A000000DA
:1012D000EDC60020006401000A000000DBC600200B
:1012E00019640100DAC600200200000044F005087D
:1012F000D8C60020E803D0070A000000D6C60020A8
:10130000006401000A000000CBC600200064010058
:10131000CAC6002000640100D2C60020006401009B
:101320000A000000D1C60020006401000A0000008D
:10133000D0C60020006401000A000000D5C60020CD
:1013400000FF01000A000000D4C6002000FF0100D9
:101350000A000000D3C6002000FF01000A000000C0
:10136000CFC6002001FF01000A000000CEC6002009
:1013700001FF01000A000000CDC6002001FF0100AE
:101380000A000000D8C300200000F40101000000A2
:10139000D6C300200000E80301000000D4C30020F1
:1013A0000000E80301000000D2C300200000E803B1
:1013B00001000000D0C300200000E803010000008D
:1013C00033CB0020009601002ACB002000C801008A
:1013D00029CB00200064010028CB0020006401001C
:1013E00027CB00200064010026CB00200064010010
:1013F00025CB0020FF08010024CB00200164010060
:1014000019990108DD9801080000000028F305087B
:101410002DCB0020013201002CCB00200100000068
:1014200098F305082BCB002004000000A0F305086A
:1014300023CB00200096010022CB00200064010095
:1014400020CB00201400E803010000001ECB002088
:10145000000030750A0000001CCB002000C801000D
:101460001BCB002000C801001ACB002000C80100DF
:1014700030CB00200032010032CB002000140100EC
:1014800031CB0020004B01002FCB002004000000D6
:10149000B4F305082ECB0020006401000A00000010
:1014A000FAC600200AC805000A000000F9C600209C
:1014B00001000000C4F30508FCC600200AC80500AE
:1014C0000A000000FBC6002001000000C4F305086C
:1014D000F1C6002000C805000A000000F8C6002080
:1014E00000C805000A000000F2C6002000C8050080
:1014F0000A000000F3C6002000C805000A00000032
:10150000F6C6002000C805000A000000F7C600204B
:1015100000C805000A000000F5C6002000C805004C
:101520000A000000F4C6002000C805000A00000000
:10153000F0C6002002000000CCF3050842CB0020DA
:101540000000D007010000003CCB002000C80100D3
:101550003BCB002000C801003ACB002000C80100AE
:1015600040CB00200000D0070100000039CB002054
:1015700000C8010038CB002000C8010037CB002094
:1015800000C801003ECB00200000D0070100000091
:1015900036CB002000C8010035CB002000C8010078
:1015A00034CB002000C80100607C06080000000069
:1015B000000037D400206C7C0608070800000000FB
:1015C000180E0020747C0608070800000000100EAA
:1015D00000207C7C0608070800000000080E0020A0
:1015E000847C0608080800000000FC0D00206066EE
:1015F0000608070800000000F40D002068660608D1
:10160000070800000000EC0D0020706606080708BF
:1016100000000000E40D00201C6706080808000018
:101620000000D80D00208C7C060807100000000088
:10163000D00D0020947C0608071000000000C80DA3
:1016400000209C7C0608071000000000C00D002050
:10165000A47C0608081000000000B40D0020906A69
:10166000060801000000000000000000000000006B
:10167000100000000000000000000000AD9601080E
:1016800091960108FDB70108D8F30508C1C30020F1
:10169000005A0100C0C3002000C80100BEC30020E2
:1016A000E803D00701000000000000000000000077
:1016B000F9AD010874F405082DC3002003000000F3
:1016C000BCF405082CC30020000301002BC300203C
:1016D00000030100CD95010881950108000000007C
:1016E000CCF4050841950108F994010800000000B8
:1016F00068F5050819960108E1B701080000000027
:10170000E8F505081CC30020010301004D92010803
:1017100025920108000000005CF90508059C0108FD
:10172000D99B010800000000DCF905086994010854
:1017300011940108000000004CFA0508BD9601084C
:1017400061F301080000000004FB0508D9BC010892
:10175000319C010800000000ACFB05080D97010852
:10176000000000000000000048FC0508F197010897
:101770009197010800000000ACFC05089998010849
:10178000559801080000000064FD050815190208BD
:101790005599010800000000F0FD0508FEC6002074
:1017A000010601005597010821970108000000007B
:1017B00008FF050831180208A9B901080000000057
:1017C00078FF050885990108C9BA010800000000E2
:1017D000F40006085919020889BA0108000000003F
:1017E000200E0020FDC600200103010061960108C3
:1017F00031960108000000000002060881B70108C8
:10180000000000000000000064020608C194010806
:10181000C9B701080000000000030608000000002E
:1018200000000000000000009C030608019A010867
:1018300015BC0108000000001C04060800000000A0
:10184000000000000000000044060608282F0020C9
:101850009CFF2C010000000070D10020E0150C1747
:101860000000000072D10020020000007C09060880
:10187000F8C2002088136F1701000000FAC2002090
:1018800088136F1700000000BC2E0020000000002D
:1018900000000000BA2E0020000000000000000040
:1018A000B82E00200000000000000000B62E00202E
:1018B0000000000000000000B42E00200000000026
:1018C00000000000B22E0020000000000000000018
:1018D000EC050020000000000000000081C2002094
:1018E0000300000060070608F0C2002088136F178D
:1018F000010000002669002088136F170000000017
:101900005193010800000000000000007007060865
:101910009DCA002001000000C407060828690020B5
:1019200001000000D00706081E6900200200000028
:10193000D8070608000000000000000000000000BA
:10194000E4070608399301080000000000000000C9
:1019500080080608000000000000000000000000F1
:10196000D40806080000000000000000000000008D
:1019700044090608FCC20020020000007C09060899
:1019800022690020E0150C1700000000F4D90020A7
:1019900048DA002001F11F3F01D6010101000000DB
:1019A0000001010100FF0000F92902080100000008
:1019B000E47A0020FFFFFFFF0000803F00000000EE
:1019C0000000000000000000000000000000000017
:1019D0000000000000000000000000000000000007
:1019E0000000803F00000000000000000000000038
:1019F0000000803F00000000000000000000000028
:101A00000000803F00000000000000000000000017
:101A1000010000000000FA430000FA430000803F8C
:101A2000BD1A0408000000000000000000000000D3
:101A300060FECD000000000044F600200800000019
:101A40000000000034F6002008000000D58A0008DD
:101A5000C585000869EC0008000000002D8400081E
:101A600005E90008898A000879E8000800000000FC
:101A700000000000E98300087D83000871830008EE
:101A8000F5DF000811E00008D9DF0008BDDF00081D
:101A9000A1DF00088D8A0008A1850008B5EB0008C9
:101AA00000000000018400087DE800085D8A00084D
:101AB000D5E700080000000000000000F5830008E2
:101AC000FFFFFFFF189E0608AC6706080000000035
:101AD00069830308A086010004000000189E060820
:101AE000209E060800000000D9F60308E803000065
:101AF000040000003871060800000000000000002B
:101B000075EC02087D000000FF0000003C6F060835
:101B10000000000000000000194C03087D000000D8
:101B2000FF000000687406080000000000000000CC
:101B3000051203087D000000FF000000D0710608B8
:101B40000000000000000000511B0408E803000032
:101B500003000000289E06080000000000000000AE
:101B6000D9F50208102700000300000008E6060867
:101B700000000000092A0208952404085F7600008E
:101B800005000000BCE9060800000000000000009D
:101B9000B58404081027000002000000349E0608E7
:101BA0000000000000000000DDF60308E80300006C
:101BB00005000000409E0608000000000000000034
:101BC000D1870308204E000003000000509E060845
:101BD0000000000000000000B9850308204E00004E
:101BE00003000000609E06080000000000000000E6
:101BF000D9200408400D030003000000DC8F060814
:101C00000000000000000000A118040810270000D8
:101C100002000000D8670608000000000000000075
:101C20009DCC01081027000003000000906D0608FD
:101C3000000000000000000071F50308A86100002A
:101C400002000000F88F06080000000000000000FD
:101C5000FD550408A00F000002000000709E060859
:101C60000000000000000000318301081027000080
:101C700002000000747E06080000000071150108D3
:101C8000AD7601088545010002000000506D060890
:101C900000000000000000000911010810270000EA
:101CA00002000000C06706080000000000000000FD
:101CB000ADFC010850C30000020000007C9E060835
:101CC0000000000000000000D5990008400D03004E
:101CD00001000000849E06080000000000000000D3
:101CE0002DF50308400D0300020000008C9E06083D
:101CF00000000000000000007DDB010850C3000070
:101D000003000000989E060800000000000000008C
:101D10003D99030840420F0001000000A49E060800
:101D20000000000000000000CDF8030850C30000D0
:101D300001000000B09E0608000000000000000046
:101D4000E95F01081027000001000000FF0100000A
:101D5000A00F0000B80B00000102FFFF010000000F
:101D6000FFFF0000E4E50608000008020503030089
:101D700000000000F0E50608010008020504030069
:101D800000000000FCE5060800000802050303004F
:101D90000000000004E60608010008020504030034
:101DA00000000000108F06080200FE010110030071
:101DB00000000000846E0608030014020003000007
:101DC000000000000CE6060804001F0202000800E4
:101DD0000000000014E6060805001F0202010800CA
:101DE00000000000FFFFFFFF1A03000000000000DA
:101DF00000000000000000000000000000000000E3
:101E00000000000004030904120100020000004069
:101E100083042057000201020301010000010000B9
:101E2000204E000000000000000000000200000042
:101E30000000000078190020B40F0120020000000B
:101E4000010000006515050874190020000000005D
:101E50000100000001000000A1150508A4160020E3
:101E60000000000000000000000000000000000072
:101E70000000000000000000000000000100000061
:101E80000000000000000000000000000000000052
:101E90000100000000000000000000000000000041
:101EA000000000000100000000000000D800000059
:101EB000000000000500000006000000B522050833
:101EC0001D1405081914050815140508092305082B
:101ED000111405080D140508E45D0608618B00085F
:101EE00081850008D1E90008000000000000000022
:101EF000C9E60008F1E6000800000000000000004C
:101F000000000000DD830008B5140508A9140508C9
:101F10002928050845280508611405080D28050825
:101F2000F127050803000000000000000500000084
:101F30000500000000029060060000008813000009
:101F40000204080001049070060000001027000041
:101F5000020408000205908006000000204E0000E8
:101F600000040A000306909006000000409C000058
:101F700000020A000000185006000000D007000010
:101F800001040C000101186007000000A00F000010
:101F900002040E0002031870070000000A1A000075
:101FA00003040C000305189006000000204E0000FA
:101FB00000020C000002000090FFFFFF1C11000057
:101FC000B80B0000C409000058020000881300008C
:101FD000010400008BFFFFFF42220000AC0D000057
:101FE000C409000058020000881300000205000028
:101FF00088FFFFFF84440000A00F0000C409000018
:1020000058020000881300000306000085FFFFFF50
:102010008444000070170000A00F000000000000C2
:10202000881300000000000097FFFFFF81060000FA
:10203000C4090000C4090000030000008813000068
:102040000101000094FFFFFFE40C0000B80B00004A
:10205000C40900000600000088130000020300000D
:1020600090FFFFFFEF160000AC0D0000C409000058
:102070000A00000088130000030500008BFFFFFF2B
:102080000B480000A00F0000C40900000000000081
:1020900088130000010101001F0000001C00000067
:1020A0001F0000001E0000001F0000001E000000B6
:1020B0001F0000001F0000001E0000001F000000A5
:1020C0001E0000001F0000000068214C01000000FD
:1020D000085E06080000000000000000000000008C
:1020E00001000000000000000000000000000000EF
:1020F00000000000010000000000000006000000D9
:1021000005000000FFFF0000F401000000000401D2
:1021100000000200010000021000000007000000A3
:102120000000000000000000010203040607080987
:10213000C70000000500000006FF0000B8190020DD
:10214000000000000000000000000000000000008F
:10215000000000000000000000000000000000007F
:10216000000000000000000000000000000000006F
:10217000000000000000000000000000000000005F
:10218000000000000000000000000000000000004F
:10219000000000000000000000000000000000003F
:082800000000000000000000D0
:108000002DE9F04700230F6801264FF0030C02E032
:108010000133102B41D006FA03F232EA0704F7D1FC
:10802000D0F800E05C000CFA04F52EEA050EC0F86A
:1080300000E091F80490D0F800A009FA04FE09F1DC
:10804000FF394EEA0A0EB9F1010FA846C0F800E068
:108050006FEA050515D8D0F808E005EA0E05856039
:108060004D79D0F808E0A54045EA0E0585604568E1
:1080700025EA020242608A7945689A4092B22A4310
:108080004260C26822EA0802C260CA79C568A2409A
:1080900001332A43102BC260BDD1BDE8F08700BF79
:1080A000074AD2E9003199421FBFD1180133097A3A
:1080B00001701DBFC3F30A03012013600020704745
:1080C000181A0020064AD2F80838D2F80C28934231
:1080D00094BF4FF400600020013B9B1A1844704786
:1080E000181A0020012380F85130704707B501A805
:1080F000FFF7D6FF0028FAD09DF8040003B05DF822
:1081000004FB044BD3E90003984288BF03F50063E6
:10811000181A7047181A002001207047024BC3F844
:108120001028C3F814187047181A0020024BC3F81F
:108130001828C3F81C187047181A00207047704799
:1081400030B4124DD5E900239A4286BF03F500648E
:10815000A21A9A1A0A44B2F5006F11D899B10144D3
:108160004A1E013810F8014FE918824203F1010359
:108170000C72C3F30A03F5D16B60002030BC70476A
:10818000022030BC70470846F8E700BF181A0020EC
:10819000F8B51A4C94F82038002BFBD159B30144A0
:1081A0004E1E451ED4F80C28D4F8081815F8017F87
:1081B000531CC3F30A038B422CBF4FF40060002012
:1081C000C91A224401440129C4F80C3882F82478E1
:1081D0000FD1012039F0D8F9D4F80838D4F80C18A8
:1081E0008B4294BF4FF4006200225B1A1344012BB0
:1081F000EFD0B542D6D10020F8BD00BF181A00203C
:1082000010B5094C54F8D43C084611465BB154F8FB
:10821000D43C052B07D1002A54F8D03C03DDFFF7EE
:10822000B7FF54F8D03C10BD102B002010B590F8CB
:108230005010002380F8503081B10B4C54F8D42CEE
:1082400072B154F8D42C052A0CD13C3054F8D03CEF
:10825000FFF79EFF54F8D03C012010BD0120FCE741
:108260001046FAE71846F8E7102B0020002280F8A5
:108270005120DBE790F85020531C0244DBB280F819
:10828000503082F83C1090F851200AB1132B00D9DD
:10829000CCE77047212838B50C4605D022282FD0CE
:1082A000202813D0002038BD0029FBD0072AF9D19F
:1082B0001A4B53F8CC0C13F8C81C13F8C72C13F83E
:1082C000C63C206021716271A371EBE70029E9D0FF
:1082D000072AE7D1124AD2F814381BB1D2F8100895
:1082E000096898470D4B256820796179A27943F890
:1082F000CC5C03F8C80C03F8C71C03F8C62CD1E704
:108300000029CFD0022ACDD1054AD2F81C38002B43
:10831000C8D00988D2F818089847C3E7102B002066
:10832000181A0020024B002043F8D40C704700BFFD
:10833000102B0020054B064A0020052142F8D41CD2
:10834000C3F81C08C3F81408704700BF181A0020AF
:10835000102B0020704700BF704700BF704700BF60
:10836000704700BF704700BF704700BF704700BF35
:10837000042301480B8070479801002010B4074A7D
:10838000074B12F8C40C122403F114020C800128CC
:108390000CBF184610465DF8044B7047102B0020A8
:1083A0009C01002010B40C4A12F8C03C02EBC3013F
:1083B0000133DBB2042B4FF0050408BF00234FF458
:1083C000045001F8BC4C02F8C03C41F8B80C5DF810
:1083D000044B4FF0FF307047102B00202023014842
:1083E0000B807047C4010020642301480B80704754
:1083F000E4010020432301480B807047480200201D
:1084000010B5084CD4F8F400FF2808D0064951F8FC
:108410009C2C9839FFF73EFFFF23C4F8F43000206E
:1084200010BD00BF98010020102B0020E8E700BF1E
:1084300008B5D0F8E4355B6A9847002008BD00BF56
:1084400008B5D0F8E4351B6A9847002008BD00BF86
:10845000D0F8E43510B504461B689847D4F8E835E1
:108460009B689847002010BD08B5D0F8E435DB695B
:1084700003B19847002008BD08B5042290F81211F6
:10848000D0F8E83580F8131180F81221DB6898479E
:10849000002008BD10B5D0F8E83504461B699847A0
:1084A000032384F81231002010BD00BF0B0617D43F
:1084B00001EB810300EBC30310B400EB8100012446
:1084C000002283F8764383F8741383F87523426D92
:1084D0005DF8044B136843F40013002013607047E9
:1084E00001F07F0101EB810300EBC303012200EBEC
:1084F000810083F81C1183F81E2183F81D218269F5
:108500001368002B01DA43F0804343F40013136037
:10851000002070470B0630B41CD401EB810200EB45
:10852000C202002300EB810582F8741382F87533D0
:1085300001241A4604FA01F16D6D61F31F420169CD
:108540006FF3CF332B60CB6923EA0203002030BCEA
:10855000CB61704701F07F0101EB810400EBC404A3
:10856000012200EB8105002384F81C1184F81D21F1
:1085700002FA01F11A46AD6961F30F02DFE700BFAD
:1085800010B581210446FFF7C5FF20460121FFF702
:10859000C1FF024B002003F8900C10BD102B0020EF
:1085A00010B581210446FFF7B5FF20460121FFF7F2
:1085B000B1FF82212046FFF7ADFFFFF7B3FE002099
:1085C00010BD00BF38B50D4604468321FFF7A2FF5A
:1085D00029462046FFF7E4FF002038BDF0B41646D8
:1085E0000A063AD401EB810500EBC50528240022D8
:1085F00004FB0104022B85F87413C5F87C6385F82D
:10860000773385F8752304F55D7448D0154600EB83
:108610008107012202FA01F17F6D61F31F45D7F84E
:1086200000C01CF4004F11D1E488204946F080526C
:1086300042F4004242EA834204F00F041C4B42EA37
:10864000845211400CEA0303194339600269D3696B
:108650002B430020F0BCD361704701F07F0101EB98
:10866000810500EBC5052824012204FB0104022B2F
:1086700085F81C11C5F8246185F81F31A5F8221171
:1086800085F81D2104F58E740CD0002500EB8107C0
:10869000012202FA01F1BF6961F30F05BFE7227100
:1086A0001546B4E700252571F0E700BFFF87CC131E
:1086B000007833EC002310B5194604464022FFF73A
:1086C0008DFF8021204600234022FFF787FFD4F84A
:1086D000E835A078012284F812215B6898470020D1
:1086E00010BD00BF82B00023016801930B690193A4
:1086F0000E4B03E00A690192013B13D0019A002A54
:10870000F8DA019A094B42F001020192019A0A61DA
:108710000A69019203E00A690192013B02D0019AC1
:10872000D207F8D4002002B0704700BF400D03000C
:10873000436D064A1A61C278012A06D100F2CC5074
:1087400058614FF0802219681A607047180008605D
:1087500010B580210446FFF7A9FE20460021FFF74F
:10876000A5FE2046BDE81040E2E700BF70B44B789C
:10877000012B26D00B784A6900EB83035C6D2568DA
:108780002369D2B18A684A6102F07F0223F4002390
:1087900023F07F0342F4002213432361C378012BAB
:1087A00004BF0B696361C5F3076363F07B0363F385
:1087B0001F652560002070BC70478A6802F07F0248
:1087C000E4E782694C691568136944B38E68B44262
:1087D0008CBF06F07F0404F07F0423F4002323F011
:1087E0007F0344F4002443EA040388BF4E6113610D
:1087F000C378012B1DD0C5F3076464F07B0464F3D8
:108800001F651560002BD5D14B69002BD2D00269B2
:108810000878516B012383400B435363CAE723F469
:10882000002323F07F0343F400231361C378012B5B
:10883000E1D10B780C6900EB8300C5F30763816914
:1088400063F07B0363F31F654C610020156070BC0F
:10885000704700BF2DE9F0434B78012B30D00B78E7
:108860004C6900EB83035E6D356837691CB38B6818
:108870001C44013CB4FBF3F4C4F3090203FB02F310
:10888000C3F312034B61144643EAC44363F31C076A
:108890003761C378012B04BF0B697361CB78012B5F
:1088A00044D0C5F3076363F07B0363F31F65356052
:1088B0000020BDE8F0838A680124C2F31203E3E7D5
:1088C00091F800804E6900EB880EDEF818C0DCF8E5
:1088D0000050DCF8107076B3D1F80890384A06EBF7
:1088E0000904013CB4FBF9F402EAC444C6F31202E1
:1088F0002243CC7807F060473A43012C174649D011
:10890000CCF81020C278012A55D00269516B03FAC5
:1089100008F30B435363C5F3076363F07B0363F30F
:108920001F65CCF800500020BDE8F0834B7973B38D
:1089300045F00055B5E707F0604747F40027CC78CD
:10894000CCF81070C378012B2FD0012CE3D1026931
:108950009268D20554BF45F0005545F08055C5F3E7
:10896000076262F07B0262F31F65CCF80050002BB7
:108970009ED1B0B203308010DEF8D04098D0CA68E3
:1089800052F8041B216001339842F9D190E745F079
:10899000805586E764F35E77CCF81070C378012BBE
:1089A000D5D10A69CCF81420D1E70A69CCF8142093
:1089B000012CB0D1CBE70B69CCF81430ABE700BF8A
:1089C0000000F81F38B501EB810400EBC4040D462C
:1089D000002184F87453C4F88C1384F87513C4F818
:1089E0008833C4F88023C3782821012B01FB0501BB
:1089F00008BFEDB201F55D7108BFC4F884231DB94D
:108A0000FFF7B4FE002038BDFFF724FF002038BD7B
:108A100070B5104B53F8842C13F86C5C04461AB1F3
:108A200013F8803C2B430DD081212046FFF73EFDFB
:108A3000022D00D070BD2046074ABDE870401F23BC
:108A40000121BFE70121FFF731FD20468121BDE86B
:108A500070402BE5102B0020842A002010B501EB7C
:108A60008101084A00EBC1010446B1F88C1310469D
:108A7000FFF766FB034A204640230121FFF7A2FFD0
:108A8000002010BDA82A0020E8E700BF10B502238F
:108A9000044640228121FFF7A1FD20460223402207
:108AA0000121FFF79BFD8221204603230822FFF7C7
:108AB00095FD064B02229A83FFF73CFC044A2046B0
:108AC00040230121FFF77EFF002010BD9801002008
:108AD000A82A002038B509220D4604460323832125
:108AE000FFF77CFD29462046FFF7D0FF002038BD68
:108AF00082B000230193019A094B42F010020192C7
:108B0000C168019A0A610A69019203E00A69019247
:108B1000013B02D0019AD206F8D4002002B070477F
:108B2000400D030082B000230193019A0B4B42F0E9
:108B300020020192019A61F38A120192C168019A9E
:108B40000A610A69019203E00A690192013B02D0BD
:108B5000019A9206F8D4002002B07047400D03003D
:108B600070B50446144EFFF70BFD20460223402249
:108B70008121FFF733FD4022012120460223FFF728
:108B80002DFD56F8283C00251B6806F8905C284609
:108B900006F86C5C98472046FFF7AAFF20460121A3
:108BA000FFF7C0FF2046A6F18C021F230121FFF72B
:108BB00009FF284670BD00BF102B00200E4BDA685D
:108BC000D20310D4DA68D1060FD4DA68D20510D4F3
:108BD000DA6812F0E00F0AD1DB6813F0020F14BF5D
:108BE00008200920704701207047062070470720A1
:108BF00070470220704700BF003C024000207047D1
:108C0000134A52F8240CC8B152F8203CB3B1884240
:108C100012D88B4234BF00230123DBB25BB152F880
:108C2000183C42F81C1C99421FBF0A4B42F8181C02
:108C3000142083F8F80070470023EEE7A1F59C5359
:108C4000083BB3F57A7F2CBF00230123E6E700BF82
:108C5000102B002098010020064B13F8132C03F86A
:108C6000141C8A421FBF044A03F8131C142082F804
:108C7000F8007047102B002098010020704730B199
:108C8000034B13F8120C012894BF002001207047F9
:108C9000102B002008B5FFF7F2FF60B1064A12F86A
:108CA000113C12F8142C5B0003F00203002A18BFD9
:108CB00043F001030B6008BD102B002008B5FFF73F
:108CC000DEFF18B1024B53F8103C0B8008BD00BF0B
:108CD000102B002070B5FFF7D2FF60B10B4A32F8BD
:108CE0000C5C3DB152F8086C0023B3421C4603DB18
:108CF000002000E00D7070BD02EB4404013334F835
:108D0000044CAC42DBB2F0D10B70F4E7102B002026
:108D100008B5FFF7B4FF10B100230B70137008BD46
:108D20000420704728B1034B93F9FA00003818BFAC
:108D3000012070479801002008B5FFF7F3FF50B1FC
:108D4000054B93F9FA20012AC3BF93F8FD30C3F312
:108D500040030B60002008BD9801002008B5FFF714
:108D6000E1FF18B1024B93F8FC300B7008BD00BF57
:108D70009801002070B5FFF7D5FF38B10D4C94F87D
:108D8000FD30DB0703D500230B70137070BD0A4D57
:108D900094F9FB302E7B93FBF6F301330B7094F9BF
:108DA000FB40297B94FBF1F301FB13430133137068
:108DB000ECE700BF98010020102B00200320704733
:108DC00070B5084A137C06255E1CB6FBF5F405FB5E
:108DD0001464557CAC421EBF02EBC3031474C3E998
:108DE000050170BD102B0020002230B5044610464E
:108DF000914200DC30BDA35C0825584010F0800F84
:108E00004FEA400318BF83F0D503013DD8B2F5D136
:108E10000132EDE710B5D9B10E4B586C814217DC29
:108E2000B2B1DB689A4213DC0B4C013A013903FB07
:108E3000012184F8081104F582700521FFF7D4FFA1
:108E4000062184F8090104F58270BDE81040B7E7F7
:108E500010BD00BF102B002098010020124B30B431
:108E60009C6CFCB100220F2583F84E10090A83F890
:108E70004D0083F84F101A655A659A6583F84C5077
:108E800003F14C00012110F8015F01312A440E2941
:108E9000D2B2F8D183F85A202046044930BC1022BF
:108EA00040F06AB930BC7047102B00205C2B0020CA
:108EB000024B002183F85C101966CFE7102B0020CD
:108EC0002DE9F04FDFF878A3CE4D564686468C4606
:108ED00017460FCE05F164042DED068B0FC40FCE9F
:108EE0000FC496E807008BB095F89A30059784E890
:108EF0000700CDE906EC042B00F25081DFE813F007
:108F0000B6014E0149010500C5019FEDBF8ADFEDA5
:108F1000BF8ABF49C5F88010BE49BF4BBF4AE96749
:108F20000599002918BF134638EE887AF5EE006AD5
:108F3000C6EE879ABA4EC5F88830A6F1120B06F134
:108F4000C0080027DFEDB77A9FEDB79A28EE278A91
:108F5000B0EE67AA079BBB4200F015811BF8012BFE
:108F6000AB1893F89F40002C00F01D81002102E017
:108F7000152900F0188101EB41004B0018F800C0E2
:108F8000A44501F10101F3D1284490F87D11002995
:108F900000F06A812046CDE9032337F0CFFCDDE9FC
:108FA000032381464846CDE9032337F00DFD90F8B1
:108FB00000C0BCF1000F40F0F680039A049B013220
:108FC0002B44D2B2032183F8BD2183F8BC11B9F13F
:108FD000000F00F0E8802309013B032B04F00F0091
:108FE00000F205810AEB4304B4F82CC04CFA00F4FB
:108FF00014F0010400F03681012404FA00F0013875
:1090000000EA0C00CDE9032352F0E0FF049BDFF8F7
:1090100034C2039A5344032193F8343018440CEBC0
:10902000C00373619971DA715CF8300099F8082017
:1090300000F13F4101F57E010AEB912191F83810D2
:1090400001F01F0C4909032904FA0CF400F0038114
:10905000042900F0F980022900F0CC809B88089355
:10906000B3FA83F3C3F11F03C3F3CC0100EB810117
:1090700003F007030C6A9B004FF00F0C0CFA03FC83
:1090800024EA0C040C620C6A02FA03F323430B6219
:10909000022308A90993FEF7B3FF059B002B00F0FC
:1090A0008E80B5F89830D5F8701307EE903AF8EE48
:1090B000E77AFCEEE77A17EE900AB1FBF0F202F5E0
:1090C0007F42FF32120CB1FBF2F2B2FBF0F083B23E
:1090D00095F89A1004290BBF07EE900A07EE902A24
:1090E000F8EE677AF8EE676A05BF07EE102A67EEBA
:1090F0008A7A66EE887AF8EE476A29EE677A95F8FA
:109100009B0006990091A6EEA87A01904946304648
:10911000C6ED027A86ED037A2FF0CAFF002F62DDDA
:109120007368D5F8C02093425FD0012F5BD0D5F88B
:10913000D820934259D0022F55D0D5F8F020934231
:1091400053D0032F4FD0D5F8082193424DD0042F90
:1091500049D0D5F82021934247D0052F43D0D5F8E8
:109160003821934241D0062F3DD0D5F85021D31A53
:1091700018BF012301370122082F3374727406F1DE
:1091800018067FF4E7AE29480BB0BDEC068BBDE8AE
:10919000F08F9FED278AF0EE488ABAE69FED258A88
:1091A000F0EE488AB5E6244A1C4BC5F88020002022
:1091B000C5F888300BB0BDEC068BBDE8F08FB0EE83
:1091C000690A53F083FDFCEEC07A4FF6FF7317EE89
:1091D000902AD5F87013B1FBF2F21A44120C18461B
:1091E000B1FBF2F274E70123C4E70023C2E7C6F83B
:1091F00014C052E71149D1F844C044EA0C044C644D
:109200002CE700BF102B0020ACC5A737ACC5A73694
:1092100051850308D187040825800308C587040801
:10922000CC2B00206F12833A00007A44742B00206C
:10923000282930386F12033975810308003802403D
:1092400094E40508F82C00201149D1F830C044EA14
:109250000C040C6302E70E49D1F840C044EA0C0448
:109260000C64FBE6746118E789469BE69FED098A6A
:10927000094A0A4BC5F88020EB6700220123CDE99B
:109280000532F0EE488A064B4EE69FED068AEFE780
:10929000003802406F12833A51850308D1870408D1
:1092A000C587040800000000F8B50546262025F013
:1092B0009DFD144C014608BBD4F8740390F8383077
:1092C0001E3B012B02D894F881330BB13FF074FFA1
:1092D0000D4F0026AE4209DBB4F8A2330133A4F8E7
:1092E000A23354F8D03CC4F8B433F8BD17F8011BCE
:1092F000D4F874033FF060FF0136EBE7002384F8F5
:10930000B033EEE7102B0020922E002038B5124C1F
:10931000637C227C9A4218D004EBC303D3E9052076
:1093200004F282310023984210DC9378C4F8B80329
:109330005B0884F8B033FFF7B7FF637C0621013385
:10934000B3FBF1F201FB1233637438BDD55C01F855
:10935000015B0133E7E700BF102B002013B5044683
:109360002620019125F042FD019920B9204602B046
:10937000BDE8104072E502B010BD2DE9F04F224C5F
:1093800085B0002305461E2094F878A394F879B39D
:1093900094F87A63B4F87C93B4F87E8394F880737D
:1093A0000193ADF80C3025F021FD30B1B8F1000F7C
:1093B0001EBFC14601264FF0000A94F8BC33DA07FD
:1093C0000AD494F8C3233AB9012F1BD0022F03D13A
:1093D00013F0020F08BF01268DF80C708DF804A061
:1093E0008DF805B08DF80660ADF80890ADF80A80EC
:1093F00001AB03CB1B882860284669602B8105B030
:10940000BDE8F08F3E46E7E7102B002007B50DF1D1
:10941000060215F00DF970B1084BBDF80620B3F83F
:10942000E81323F80C2C91421FBF0549A3F8E82349
:10943000142081F8F80003B05DF804FB102B002025
:109440009801002013B50446FFF76CFC08B3002315
:109450000DF106022046ADF8063015F0E9F8C0B16E
:109460000D4C9DF8062094F9FA1084F80E2103297A
:1094700008BF62F07F024FF00501084808BF84F87A
:109480000E21FFF7B1FC062184F80F010348FFF716
:1094900097FC02B010BD00BF98010020A20200207E
:1094A0002DE9F743C14CA36C0D4643B14FF00208C0
:1094B00000274FF00109A06C3FF05AFE60B900266A
:1094C00014F8123C042B00F26B81DFE813F09100DA
:1094D000EF00030150015901A06C3CF08BF8236EA2
:1094E0005A1C2344226683F8EA0394F85C30012B6B
:1094F00009D0022B10D0002B76D10F280CBF84F896
:109500005C902366D7E7A0F17203012B01D976287E
:109510006AD184F85C80CEE7102ACCD1A44900231C
:10952000012211F8010F013203440E2ADBB2F8D1F7
:1095300094F8F82384F85C709A422766BBD194F8BB
:10954000F933002BB7D194F8EB63732E3FD0762E0E
:109550000FD0722EAFD194F8ED2394F8EC3353EA88
:109560000223A8D044F8243CB4F8EE3344F8203C5D
:10957000A6E794F8ED2394F8EC3353EA02239AD04B
:1095800094F8EF1394F8EE2394F8F30344F8103CA6
:1095900042EA012294F8F01304F8111C94F8F11334
:1095A00084F8FC1394F8F213A4F8FA2341EA00219A
:1095B000A4F8FE1354F81C1C09B944F81C3C34F8F8
:1095C0000C3C002B7FF47CAF24F80C2C78E794F84B
:1095D000F12394F8F03343EA02231AB2002B3FF44C
:1095E0006AAFA4F800246BE784F85C70276662E732
:1095F000722E4DD1012304F8123C002294F8083455
:10960000402B36D134F80C0CA4F80E6494F8FC63AB
:1096100014F8123CB4F8FAC3A4F80C34050233036E
:1096200014F8141C54F8107C05F4706503F44053CE
:109630002B434FEA0C1543EA8133EDB22B4354F828
:109640001C5C1BB2BD4214BF0825002513436045B6
:1096500014BF042000202B430343B14214BF022156
:1096600000211943534BA4F8101493F8F830A4F8D0
:109670001234636C23B154F8083C002B40F0A480F2
:109680004D494E481F2203B0BDE8F04354F0EFBEF1
:10969000D4F804344A4AEB1A934201DC0022ADE7C5
:1096A0007220FFF705FCC4F80454F7E7762E04D1C6
:1096B000022304F8123C0022A0E7D4F80434404A04
:1096C000EB1A9342EADD7620FFF7F2FBC4F804546C
:1096D000002293E7374FD4F8043497F8F820EB1AB8
:1096E000B2B3374A934236DD14F8112CD2071FD497
:1096F00054F81C1C54F8102C91420FD089B246200B
:10970000FFF72CFE97F8F830C4F80454013B87F8B3
:10971000F830042304F8123C01226FE734F80C1CE3
:10972000B4F8FA238A4203D05020FFF717FEE9E786
:1097300014F8141C94F8FC238A4206D0B1FA81F183
:1097400049094920FFF70AFEDCE7142287F8F820D0
:109750001C4A9342B7DC762EA0D17320FFF7A8FBFA
:10976000032304F8123CC4F80454002246E7732E85
:1097700094D0D4F80414124B691A994298DC8DE7FE
:10978000D4F804340E4AEB1A934287DD7620FFF7B3
:109790008FFB022304F8123CC4F8045400222DE786
:1097A000002304F8123C1A4628E700BF102B0020C3
:1097B000FA2E0020980100204C600608A802002024
:1097C0003F0D03003F420F00334DD4F814642A23A9
:1097D00085F810310DF1020220230DF10101304610
:1097E00085F8113114F0BBFF30B19DF801109DF8E0
:1097F000027051EA070339D1552385F81231462307
:1098000085F81331202301A9304685F8143114F06E
:10981000A0FF0346214813B1BDF804209ABB20499C
:109820004CF0C2FDB4F8FE731E4D87B30DF1030179
:10983000304614F091FF50B39DF803100DF106026D
:10984000304614F0F5FE10B3BDF8062016493B462D
:10985000BA420CBF20222A2228464CF0A5FDB4F8BB
:109860000034A4F8183403B0BDE8F083304614F097
:109870005BFF394685F81201304614F041FF03784A
:1098800085F81331BEE709494CF08EFDCAE7084957
:1098900028464CF089FDE2E798010020AD02002047
:1098A0006E600608B102002066600608239F060865
:1098B0006D60060838B50B680E4D5A1C0A6005220B
:1098C0001A700B6895F8FA200C46591C21601A7022
:1098D000236895F8FD20591C21601A70B5F8001115
:1098E00020464AF015FF236895F80221591C216093
:1098F0001A7038BD980100202DE9F0472DED028B3C
:10990000FFF710FAC8B31E4B93F9FA00012834DDB3
:1099100093F82F411B4F9FED1C8A15468E1E02EBBC
:1099200044084FF03209454504D1BDEC028B204676
:10993000BDE8F08737F802AB26F802AF07EE90AA31
:10994000F8EEE70AB2EE040A60EE880A53F028FB4C
:10995000BCEEC00ABAF10E0F10EE103A9BB209D954
:109960001933B3FBF9F39BB203EB830303EB8303DC
:109970005B009BB225F8023BD5E70024D5E700BF8A
:10998000980100202A2F0020CDCCCC3D38B50D46C3
:10999000FFF7C8F9044638B10C4890F8FD30DB07F2
:1099A00004D5B0F8FE002880204638BD084A90F95A
:1099B000FB30127B93FBF2F102FB113201320131D9
:1099C00000F5987014F048FEEDE700BF9801002004
:1099D000102B00202DE9F047A84D95F82A348AB0C5
:1099E0008146002B40F0B280D5F81464002E00F0C0
:1099F000AD80A34AD2F8344104F0F021B1F1E02F58
:109A00006BD1C2F83431D5F82C24944265D004933C
:109A10000593ADF81830B5F87C3395F878E3ADF8D8
:109A2000143095F879C395F8803395F87A838DF8DA
:109A3000183004AF8DF810E08DF811C08DF8128049
:109A400097E8070007AB03C31A808E4AC5F82C4479
:109A5000C4F34253D15CC4F303428E4502F10102C8
:109A600001D1944508D030468DF81C108DF81D208A
:109A700014F0F2FDADF82000304615F040F8032850
:109A800004F0070A34D0042836D00023984501A9F1
:109A9000304618BF8DF81E3014F058FE48B1019BB7
:109AA000C4F3001103F001038B4202D0304614F0DE
:109AB000FDFE0A2207A9384654F073FC68B19DF8F0
:109AC0001E30BDF81C2085F87A33BDF82030A5F88B
:109AD0007823A5F87C334BF00DFC95F830A404AF47
:109AE00095F83034032B7BD8DFE803F00A3376A3F4
:109AF000654B13F80A30C9E7644B13F80A30C5E721
:109B00003946304614F028FE044658B107A8FFF73E
:109B100034FC9DF81E109DF810308B4260D030460A
:109B200014F050FF95F83034013303F0030385F847
:109B300030340CB99A45D3D195F8BC33DB0700D546
:109B400024B1336849461B68304698470AB0BDE8DF
:109B5000F08701A8FFF711FC95F8BC839DF804403D
:109B600008F00108ECB1B8F1000F39D13A460DF117
:109B70000301304614F0F3FD044688B307A8FFF74D
:109B8000FCFB9DF81C109DF803309DF81D208B42B6
:109B900003D19DF81030934222D0304614F01CFFC0
:109BA000C0E7B8F1000FBDD13946304614F0D1FD01
:109BB0000446A8B107A8FFF7E0FBBDF82010BDF8E8
:109BC00010308B420CD085F8318485F832843368AC
:109BD00030469B699847A5E795F8BC33D80701D56F
:109BE00000249FE707A9304614F0B0FD0446002882
:109BF000F6D01E2025F0FAF895F8333483428046DB
:109C0000EED085F8330460B1B5F87E33002BE7D190
:109C1000079BD907E4D40121304614F047FE44469F
:109C200080E7079BDA07DBD50146304614F03EFE9D
:109C300078E73846FFF7A1FB97E8070007AB03C3B7
:109C40001A809DF810309BB10DF11D0207A9304616
:109C500014F085FD0DF11E01304614F07DFD0A2241
:109C600007A9384654F09DFB041E18BF012459E78C
:109C700008A9304614F06DFDECE700BF102B002062
:109C80009801002040610608346106082861060832
:109C900000F01F0240090123032803FA02F304D055
:109CA00004280CD0022805D07047074A116C0B43DA
:109CB00013647047044A516C0B4353647047024A63
:109CC000116B0B4313637047003802400048704724
:109CD000582D00200E4B30B4DB68427801780D4CD3
:109CE000DB43C3F30223C3F10403DBB202FA03F341
:109CF00060181B0101F01F050122490903F0F00360
:109D0000AA4080F8003344F8212030BC704700BFDF
:109D100000ED00E000E100E0002800F087802DE980
:109D2000F0431C468388B3FA83F3202B8C4683B020
:109D300011468046C3F11F026ED03D4E3D4DB31813
:109D400005EB820293F84070C2F834C43FF02EFD58
:109D5000B8F804E0D8F80000374ABEFA8EFECEF11B
:109D60001F0101F0FC0303F1804303F59C3301F074
:109D70000301D3F808804FEA810C4FF00F0909FA6C
:109D80000CF900F13F4128EA0900986001F57E01D5
:109D9000D3F80880C1F3872101FA0CF14FF000409D
:109DA00020FA0EF041EA080199605061136823EA35
:109DB00000031360536823EA0003536013680343EE
:109DC0001360936806EB840423EA00039360D3686E
:109DD00094F8501023EA00031029D3601FD001F13A
:109DE000804101F59E310B68184308603D4495F8A9
:109DF0007434F02B10D9114BDB5D8DF80430F02159
:109E000003224FF4807301A885F874148DF805209F
:109E1000ADF80630FFF75EFF03B0BDE8F08393684E
:109E200003439360D3681843D060DFE7704700BFF7
:109E300094E40508102B0020003C014060610608F6
:109E4000484B5B68C3F308032DE9F041002B65D153
:109E5000EFF31183002B61D1434A444C52F8D01CDC
:109E6000A06852F8D03C9942F8D1D2F88434984294
:109E7000F4D8D2F880544FF47A7404FB05F3181A1E
:109E8000B0FBF5F004FB0101364D384810264FF4C5
:109E90007A7401276B68C3F30803F3B9EFF31183F6
:109EA000DBB952F8D03CD0F808E052F8D0CC63458A
:109EB000F7D1D2F884C4E645F3D8D2F8808404FB05
:109EC00008FCACEB0E0CBCFBF8FC04FB03C35B1AF8
:109ED000B3F57A7FDED3BDE8F081EFF3118E86F320
:109EE0001288D0F808800368DB0344BFC2F87C7492
:109EF000D0F8088052F8D0CCD2F87C345FFA8EFECD
:109F00008EF31188D2F880E4634404FB0EFCACEBC2
:109F1000080CBCFBFEFC04FB03C3D8E7EFF3118085
:109F2000102383F3128811490F4A8D680B68DC03F4
:109F300042BF0123C2F87C348D6852F8D03CD2F87D
:109F40007C14C0B280F31188D2F880444FF47A7048
:109F5000194400FB04F35B1BB3FBF4F300FB01317A
:109F600092E700BF00ED00E0102B002010E000E0C1
:109F70002DE9F84FBA4C94F888140546C1F3400116
:109F8000D4F890043FF0F4FD94F88814D4F88C04CD
:109F9000C94301F001013FF0EBFD002D00F0CD8041
:109FA0006E1EB04FB04D5FFA86FB4FF01008D4F82C
:109FB00090043FF0C1FDD4F88C043FF0BDFDB4F82F
:109FC0009834002B40F0438194F89A14D4F89C0400
:109FD0003FF0CEFD4FF0FA094FF47A704FF0010CCC
:109FE0007B68C3F30803002B40F00881EFF3118373
:109FF000002B40F0038154F8D02CA96854F8D03CD1
:10A000009A42F8D1D4F884349942F4D8D4F88064D0
:10A0100000FB06F35B1AB3FBF6F300FB02327B682E
:10A02000C3F30803002B40F0A880EFF31183002B4B
:10A0300040F0A38054F8D03CD5F808A054F8D01CC8
:10A040008B42F7D1D4F884148A45F3D8D4F88064CD
:10A0500000FB06F1A1EB0A01B1FBF6F100FB0313D3
:10A060009B1AB3F57A7FDAD3B9F10109B8D1D4F8E4
:10A0700090043FF061FDD4F88C043FF05DFDB4F82E
:10A080009834002B40F0D78094F89A14D4F89C04AC
:10A0900081F001013FF06CFD4FF0FA0C4FF47A7043
:10A0A0004FF0010E7B68C3F30803002B40F086805D
:10A0B000EFF31183002B40F0818054F8D02CA96875
:10A0C00054F8D03C9A42F8D1D4F884349942F4D868
:10A0D000D4F8809400FB09F35B1AB3FBF9F300FB9F
:10A0E00002327B68C3F308034BBBEFF3118333BB2E
:10A0F00054F8D03CD5F808A054F8D01C8B42F7D1C6
:10A10000D4F884148A45F3D8D4F8809400FB09F17C
:10A11000A1EB0A01B1FBF9F100FB03139B1AB3F5A4
:10A120007A7FDED3BCF1010CBCD10BF1FF365FFAB4
:10A1300086FBBBF1FF0F7FF43AAFBDE8F88FEFF37A
:10A14000118988F31288AE682B68DB0344BFC4F81A
:10A150007CE4AE6854F8D03CD4F87C145FFA89F9FA
:10A1600089F31188D4F880940B4400FB09F1891B12
:10A17000B1FBF9F100FB0313D0E7EFF3118E88F385
:10A180001288D5F808A02B68D90344BFC4F87CC452
:10A19000D5F808A054F8D03CD4F87C145FFA8EFEB1
:10A1A0008EF31188D4F880640B4400FB06F1A1EB18
:10A1B0000A01B1FBF6F100FB031351E7EFF3118144
:10A1C00088F31288D5F808902B68DA0344BFC4F8E6
:10A1D0007CE4D5F8089054F8D03CD4F87C24C9B27B
:10A1E00081F31188D4F880141A4400FB01F3A3EB27
:10A1F0000903B3FBF1F300FB023272E7EFF31181C5
:10A2000088F31288AE682B68DB0344BFC4F87CC4B3
:10A21000AE6854F8D03CD4F87C24C9B281F31188DC
:10A22000D4F880141A4400FB01F39B1BB3FBF1F339
:10A2300000FB0232F3E6D4F8B434002B3FF42CAF29
:10A24000D4F8A034C3F8009084F8B19424E7D4F88B
:10A25000B434002B3FF4BEAE37F08CFABAE600BF40
:10A26000102B002000ED00E010E000E02DE9F84F99
:10A27000B74CB84F94F88814D4F89004B64DC1F395
:10A2800040013FF075FC94F88814D4F88C04C9435D
:10A2900001F001013FF06CFC4FF0050B4FF010088E
:10A2A000D4F890043FF048FCD4F88C043FF044FC10
:10A2B000B4F89834002B40F0438194F89A14D4F801
:10A2C0009C043FF055FC32264FF47A704FF0010C9D
:10A2D0007B68C3F30803002B40F00781EFF3118381
:10A2E000002B40F0028154F8D02CA96854F8D03CDF
:10A2F0009A42F8D1D4F884349942F4D8D4F880E45E
:10A3000000FB0EF35B1AB3FBFEF300FB02327B682B
:10A31000C3F30803002B40F0A780EFF31183002B59
:10A3200040F0A28054F8D03CD5F808A054F8D01CD6
:10A330008B42F7D1D4F884148A45F3D8D4F880E45A
:10A3400000FB0EF1A1EB0A01B1FBFEF100FB0313D0
:10A350009B1AB3F57A7FDAD3013EB9D1D4F89004D1
:10A360003FF0EAFBD4F88C043FF0E6FBB4F89834F5
:10A37000002B40F0DA8094F89A14D4F89C0481F011
:10A3800001013FF0F5FB4FF0320C4FF47A700126DB
:10A390007B68C3F30803002B40F08780EFF3118341
:10A3A000002B40F0828054F8D02CA96854F8D03C9F
:10A3B0009A42F8D1D4F884349942F4D8D4F88094ED
:10A3C00000FB09F35B1AB3FBF9F300FB02327B6875
:10A3D000C3F308033BBBEFF3118323BB54F8D03C1A
:10A3E000D5F808A054F8D01C8B42F7D1D4F88414C7
:10A3F0008A45F3D8D4F8809400FB09F1A1EB0A0157
:10A40000B1FBF9F100FB03139B1AB3F57A7FDED39E
:10A41000BCF1010CBCD10BF1FF3616F0FF0B7FF441
:10A420003FAFBDE8F88FEFF3118988F31288D5F8B4
:10A4300008A02B68DB0344BFC4F87C64D5F808A0EF
:10A4400054F8D03CD4F87C145FFA89F989F3118868
:10A45000D4F880940B4400FB09F1A1EB0A01B1FB95
:10A46000F9F100FB0313CFE7EFF3118E88F31288A5
:10A47000D5F808A02B68D90344BFC4F87CC4D5F82C
:10A4800008A054F8D03CD4F87C145FFA8EFE8EF30A
:10A490001188D4F880E40B4400FB0EF1A1EB0A0113
:10A4A000B1FBFEF100FB031352E7EFF3118188F3D8
:10A4B0001288D5F808902B68DA0344BFC4F87C648E
:10A4C000D5F8089054F8D03CD4F87C24C9B281F374
:10A4D0001188D4F880141A4400FB01F3A3EB09039C
:10A4E000B3FBF1F300FB023271E7EFF3118188F364
:10A4F0001288D5F808E02B68DB0344BFC4F87CC49D
:10A50000D5F808E054F8D03CD4F87C24C9B281F3E3
:10A510001188D4F880141A4400FB01F3A3EB0E0356
:10A52000B3FBF1F300FB0232F1E6D4F8B434002BB4
:10A530003FF429AFD4F8A0341E6084F8B16422E758
:10A54000D4F8B434002B3FF4BEAE37F013F9BAE6BA
:10A55000102B002000ED00E010E000E010B4B8B1D6
:10A560000D4CD4F8B834102B05D15DF8044B0521FF
:10A57000002036F0A3BD03EB4302224482F8BD1451
:10A5800001210B4482F8BC0482F8BE14C4F8B8342C
:10A590005DF8044B704700BF102B002000285FD0EF
:10A5A0000368374A2DE9F04103F13F4404F57E0486
:10A5B00002EB9422012492F8382002F01F05520980
:10A5C000032A04FA05F456D0042A4FD0022A48D0B0
:10A5D0008588B5FA85F0C0F11F00C0F3CC0603EB07
:10A5E000860600F0070082000F24306A944020EABB
:10A5F00004003062306A01FA02F202430021326242
:10A600004FF0010E0A464FF0030C02270EFA02F833
:10A6100038EA050002F101021CD118680CFA01F4B5
:10A6200020EA04001860186807FA01F606431E6065
:10A630009E6826EA04069E6098689860586820EA3A
:10A640000800586058685860D86820EA0400D8604C
:10A65000D868D860102A01F10201D7D1BDE8F08195
:10A660007047084A556C2C435464B1E7054A156B92
:10A670002C431463ACE7034A156C2C431464A7E71E
:10A6800094E405080038024070B5464E96F8EC4454
:10A6900004EB440306EBC303650093F8F034032B8B
:10A6A0006ED8DFE803F059291E02254406EBC505E4
:10A6B000D5F8F404002870D196F850359C425FD04C
:10A6C000013404F00302934286F8EC2458D002EBE4
:10A6D000420406EBC4040223C4F8F40484F8F03402
:10A6E00070BD2B1906EBC303D3F8F42472B1013A01
:10A6F000C3F8F424002070BD2B1906EBC303D3F874
:10A70000F424002AF3D1022283F8F024254406EB36
:10A71000C50595F8FC34013BDBB285F8FC348BBBF6
:10A72000214B96F85065D3F83811D5F8F804621C1F
:10A7300002F003024B1E0324B242034485F8F044A6
:10A74000B3FBF1F0C5F8F4041AD0994218D80138D7
:10A75000C5F8F404012070BD40F0F4F880B1124B4C
:10A760002C44D3F8382106EBC404012102F51C5314
:10A7700084F8F0140F33B3FBF2F3C4F8F43470BD73
:10A78000012070BD084BD3F83821012002F2E733D5
:10A79000B3FBF2F3C5F8F43470BD0138C5F8F40426
:10A7A000002070BD102B0020980100202DE9F04FF3
:10A7B000B34CB44E95B0002305464FF4F072884672
:10A7C00004F254502021019584F8513584F8523513
:10A7D00053F00FFE202104F234704FF4F07253F066
:10A7E00008FEA949322510274FF47A704FF0010C6A
:10A7F0007368C3F30803002B40F0BB80EFF31183B1
:10A80000002B40F0B68054F8D02CD1F808E054F872
:10A81000D03C9A42F7D1D4F884349E45F3D8D4F88A
:10A82000809400FB09F3A3EB0E03B3FBF9F300FBE9
:10A8300002327368C3F30803002B79D1EFF311835D
:10A84000002B75D154F8D03CD1F808A054F8D0ECC6
:10A850007345F7D1D4F884E4F245F3D8D4F8809462
:10A8600000FB09FEAEEB0A0EBEFBF9FE00FB03E3A4
:10A870009B1AB3F57A7FDCD3013DB9D194F8152941
:10A88000002A50D094F81639013B022B4BD803EB29
:10A89000830004EBC0017D4D91F8B06905EBC00069
:10A8A0000127022EC4F8180984F8A07900F0B382B9
:10A8B000DBB204EB0313D3F8283AC1F8B43993B3ED
:10A8C00002234FF4807081F8B039A5F188034C3D24
:10A8D000A1F8BC09C1F8C839C1F8CC591509013D26
:10A8E000032D02F00F0200F29282694E06EB45033F
:10A8F000988D40FA02F3DB0740F18982012303FAC5
:10A9000002F2013A1040354451F060FB95F83420D2
:10A91000604B104403EBC000C4F820098379002B7E
:10A9200048D0412B46D06FF0010015B0BDE8F08F44
:10A93000EFF3118987F31288D1F808A00B68DB03C5
:10A9400044BFC4F87CC4D1F808A054F8D03CD4F873
:10A950007CE45FFA89F989F31188D4F88094734410
:10A9600000FB09FEAEEB0A0EBEFBF9FE00FB03E3A3
:10A970007EE7EFF3118E87F31288D1F808900B6809
:10A98000DA0344BFC4F87CC4D1F8089054F8D03C32
:10A99000D4F87C245FFA8EFE8EF31188D4F880E41C
:10A9A0001A4400FB0EF3A3EB0903B3FBFEF300FB19
:10A9B00002323EE72323C38009213EF0F7FED4F89C
:10A9C000203913B11A689B881383D4F87023324B53
:10A9D000B3EB920F80F02582B3EBD20F80F023828D
:10A9E000B3EB121F80F02482B3EB521F80F025825C
:10A9F000B3EB921F80F02682B3EBD21F80F0278248
:10AA0000B3EB122F80F025824FF4807200230DF1FA
:10AA10000D01FF20A4F81C290122CDE90413CDE982
:10AA20000833CDE90A33D4F818198DF80D000D93C9
:10AA300006928DF81C208DF83020EFF31180102342
:10AA400083F31288D4F818391B6A3BB3069B04AD14
:10AA50002A461BB1D3691432002BFBD10B6AFBB120
:10AA6000996851B99A4200F082811968002900F072
:10AA70007B815B6899680029F4D01433F0E700BF4C
:10AA8000102B002000ED00E010E000E0C0340020BA
:10AA900094E40508F82C0020404B4C0004AD0D62F6
:10AAA000C0B280F31188B44850F02AFAD4F81819CB
:10AAB0000B6A002BFCD18C220120CDE908330DF16B
:10AAC0000E060DF10F0705938DF81C300D931093B2
:10AAD00012938DF80E2000230022CDE90E23049658
:10AAE00006900B908DF830008DF844000A97EFF334
:10AAF0001180102383F31288D4F818391B6ABBB174
:10AB0000069B2A461BB1D3691432002BFBD10B6A7A
:10AB10007BB1996851B9934200F0378119680029D7
:10AB200000F030815B6899680029F4D01433F0E7B5
:10AB30000D62C3B283F311888F4850F0E1F9D4F865
:10AB40001829136A002BFCD19DF80F301B2B40F005
:10AB50008881D4F82039012284F851250BB12322B1
:10AB6000DA80854840220A213FF0B2FD8A21002385
:10AB700001228DF80E1000200021CDE90E01CDE953
:10AB80000833D4F8181904960A9705938DF81C30E9
:10AB90000D931093129306920B928DF830208DF83E
:10ABA0004420EFF31180102383F31288D4F818396E
:10ABB0001B6ABBB1069B2A461BB1D3691432002B1A
:10ABC000FBD10B6A7BB1996851B9934200F0E480E4
:10ABD0001968002900F0DD805B6899680029F4D0CD
:10ABE0001433F0E70D62C3B283F31188624850F06A
:10ABF00087F9D4F81829136A002BFCD19DF80F208F
:10AC000094F81419C2F3801284F8582A002900F02D
:10AC1000C780022900F0E180D4F870335749B1EBC6
:10AC2000930F80F01881B1EBD30F80F0FE80B1EB71
:10AC3000131F80F0FF80B1EB531F80F00081B1EB58
:10AC4000931F80F00181B1EBD31F80F00781B1EB3E
:10AC5000132F34BF4FF4807C4FF0800C94F808140D
:10AC6000A4F85ACA18290ED14549A4F80C845B08E7
:10AC7000B3FBFCF3A1FB03135B0BA4F80E24A4F8B5
:10AC800010C4A4F812343C48A4F81CC902220021C4
:10AC90003FF01EFDC82036F059FBDFF8DC90D4F8F9
:10ACA00018094FF080084FF0000A4FF0000B002306
:10ACB0000122CDE90EABCDE908338DF80E80049664
:10ACC0000A9705938DF81C300D93109312930692FA
:10ACD0000B928DF830208DF84420EFF31182102371
:10ACE00083F31288D4F818391B6AA3B1069B29464E
:10ACF0001BB1CB691431002BFBD1006A60B18368B2
:10AD00003BB981422CD0036843B340688368002B71
:10AD1000F7D01430F3E70562D2B282F311884846C7
:10AD200050F0EEF8D4F81809036A002BFCD19DF816
:10AD30000F3013F00203BAD101984178827800787D
:10AD400084F85C0AC1F12001C2F11002184684F8AF
:10AD50005D1A84F85E2A15B0BDE8F08FC0E9009551
:10AD6000D2B282F31188DDE7034AC3E90025C0B2FD
:10AD700080F311889AE600BF28340020809698005E
:10AD80005917B7D13C4AC3E90025C3B283F31188F0
:10AD9000D5E6394AC3E90025C3B283F3118828E711
:10ADA000D4F870333549B1EB930F54D2B1EBD30FD4
:10ADB0003BD2B1EB131F3DD2B1EB531F3FD2B1EBEE
:10ADC000931F41D2B1EBD31F48D2B1EB132F34BF45
:10ADD0004FF4807C4FF0800C40E7D4F87033284863
:10ADE000B0EB930F45D2B0EBD30F1ED2B0EB131FD5
:10ADF00020D2B0EB531F22D2B0EB931F24D2B0EB82
:10AE0000D31F34BF4FF0800C4FF0400C26E70020DA
:10AE1000C4F82009D0E591F8BD393B4481F8BD392B
:10AE20005CE50222F2E50422F0E54FF0040C15E7A0
:10AE30000822EBE54FF0080C10E71022E6E54FF092
:10AE4000100C0BE72022E1E54FF0200C06E7402232
:10AE5000DCE58022DAE54FF0020CFFE64FF0400C13
:10AE6000FCE6D4F8200920213EF0A0FC4FF0FF3092
:10AE70005BE58C46F2E600BF28340020404B4C00D6
:10AE8000002D310110B582B00A88ADF806200023EC
:10AE90000C468DF805308DF804004CF0B9F804210B
:10AEA0000DEB01002EF0D8F8BDF80630238002B07B
:10AEB00010BD00BF10B582B00A788DF807201823A6
:10AEC000040A8DF804308DF806008DF805404CF02A
:10AED0009FF804210DEB01002EF0BEF802B010BD6A
:10AEE00010B582B019220023040A8DF803308DF8C2
:10AEF00001408DF800200C468DF802004CF088F8D7
:10AF0000052168462EF0A8F89DF80430237002B0A1
:10AF100010BD00BF38B50C4C0546A11CD5224AF027
:10AF20006DF82B68A342C5E90043A3EB04000AD0E7
:10AF300004F14002611C2960237802F8013BD5E945
:10AF40000041A142F6D138BD70350020F0B40D6843
:10AF500000240CE0BCF1050F18D8A0F137030A2B30
:10AF600014D104EB840415F8010B03EB4404A0F1A5
:10AF70003003DEB2092EA0F16107A0F1410CF0D937
:10AF8000052FE7D8A0F157030A2BEAD00D60146013
:10AF9000F0BC7047094B93F89A30042B08D9053B55
:10AFA000032B08D801231A4600B1037010467047DE
:10AFB00000230122F8E700231A46F5E7102B0020B2
:10AFC0009FED727A07EE901A20EE070AF8EE677A84
:10AFD00027EE800AFDEEC07A17EE903A2033402B20
:10AFE00000F2C480DFED6A7AB4EEE70AF1EE10FAFF
:10AFF000F0EE407A0CDD9FED676ADFED676AB0EE38
:10B00000677AB4EEE67AF1EE10FA77EEC67AF6DCFD
:10B010009FED627AF4EEC77AF1EE10FA0CD59FED4F
:10B020005D6ADFED5F6AB0EE677AB4EEE67AF1EE64
:10B0300010FA77EE867AF6D49FED5A7AF4EEC77A54
:10B04000F1EE10FA00F38A809FED577AF4EEC77A9A
:10B05000F1EE10FA44BF9FED517A77EE677A27EE52
:10B06000A76ADFED525A9FED527ADFED526AA6EEE3
:10B07000257A67EE865AE6EE076AB6EE007AE5EEC6
:10B08000A67A27EE877ADFED476A70EE267ABDEE64
:10B09000E76A16EE103A2033402B64D8B4EEE60A85
:10B0A000F1EE10FA0CDDDFED3B5A9FED3B6AF0EE5E
:10B0B000676AF4EEC66AF1EE10FA77EEE57AF6DC2E
:10B0C000DFED366AF4EEE67AF1EE10FA0CD5DFED3C
:10B0D000315A9FED336AF0EE676AF4EEC66AF1EE1C
:10B0E00010FA77EEA57AF6D4DFED2E6AF4EEE67A62
:10B0F000F1EE10FA3DDDDFED266A76EEE77A67EED7
:10B10000A75A9FED2A5A9FED2A6ADFED2A6AA5EE1B
:10B11000856A27EEA55AE5EE866AB8EE006AE5EE86
:10B12000267A67EE867AC7EE206AB7EE006A76EE78
:10B13000865A76EE666A86EE257A80ED091A67EE03
:10B14000277A66EE876AC0ED017AC0ED037A80ED5A
:10B15000007A80ED027AC0ED046A70479FED0C7AA8
:10B1600077EE677A7BE7DFED147ADCE79FED127A02
:10B1700089E7DFED0D6AF4EEE67AF1EE10FA44BFEE
:10B18000DFED066A76EEE77AB9E700BF27D4D2365C
:10B19000DB0F4940DB0FC940E4CB1641DB0F49C050
:10B1A000E4CB16C1DB0FC93FDB0FC9BF92E741B942
:10B1B0009730083C15A82ABE000000002DE9F8438E
:10B1C000DFF8E0E3E24CDEF8E43A14F89C5C07EECA
:10B1D000903AF8EE670A2DED028B44ED280A002D17
:10B1E00074D1DFF8C4C314F88C7C44F8905C9CF8EC
:10B1F0000050002F40D034F8963C9FEDD66A9FED6A
:10B20000D67A07EE903AF8EE677A20EE877AC6EEA5
:10B21000276A0023012FC4F8C83076EE876AC7EE8C
:10B22000267AC4ED337A27D0022FC4F8D030C4ED8B
:10B23000357A21D0032FC4F8D830C4ED377A1BD02B
:10B24000042FC4F8E030C4ED397A15D0052FC4F8C6
:10B25000E830C4ED3B7A0FD0062FC4F8F030C4EDCF
:10B260003D7A09D0072FC4F8F830C4ED3F7A03D0F7
:10B27000C4F80031C4ED417A9EF8BA309FEDB76A48
:10B280009FEDB77A9FEDB70A07EE903AF8EEE77AAE
:10B290009CF8583BC6EE276A1D4415FB07F7FFB222
:10B2A00007EE907A60EE870AF8EEE77AC4ED306A2E
:10B2B000A7EEA00A51F016FEBDEC028BFCEEC07AA0
:10B2C00017EE903A84F8C430BDE8F883BCEEE06A2B
:10B2D0009FEDA57A14F89B3C34F8982C9FEDA32A97
:10B2E000DFEDA36ADFF8C0C214F88C7C44F890CC80
:10B2F000F8EE465A07EE903A87EE255A8CF8005041
:10B3000007EE102A34F89A2C8CED025A16EE103AF9
:10B31000F8EE677A06EE102AB8EEC77A27EE822A90
:10B32000B8EE466A67EE266ACCF81430012322EEA6
:10B33000252ACCED017A8CED036ACCED046A04F881
:10B34000943C002F98D0DFED8B7A9FED8B4ADFED98
:10B350008B5AC7EE871AC7EB0716A7EB07190CEB3A
:10B36000C6064FEAC9094FF00008B1EE611A9FED19
:10B37000846A09EB06009FED833ADFED833ADFED47
:10B38000836A0346002207EE902AB8EEE77A27EE9A
:10B39000027AFDEEC77A17EE901A2031402900F2AA
:10B3A000D080B4EEC47AF1EE10FAF0EE477A0CDDFC
:10B3B000DFED774A9FED775AF0EE672AF4EEC52A63
:10B3C000F1EE10FA77EEE47AF6DCF4EEE57AF1EEDF
:10B3D00010FA0CD5DFED6E4A9FED6F5AF0EE672A3A
:10B3E000F4EEC52AF1EE10FA77EEA47AF6D4F4EE74
:10B3F000C67AF1EE10FA40F39A8074EE677A27EE7F
:10B40000A75AB0EE630AA5EE030ADFED644AE5EE43
:10B41000004A65EE272AB7EE005AE2EEA47AB0EEB3
:10B42000458AF0EE454AA1EEA78AE1EE274AC5EE2D
:10B43000088A84EE880A77EE067ABDEEE75A15EEA2
:10B44000101A203140296FD8B4EEC67AF1EE10FA06
:10B450000CDD9FED4F5A9FED4F7AF0EE674AF4EE08
:10B46000C74AF1EE10FA77EEC57AF6DCF4EEE57A2B
:10B47000F1EE10FA0CD59FED465A9FED477AF0EEAB
:10B48000674AF4EEC74AF1EE10FA77EE857AF6D401
:10B49000F4EEC67AF1EE10FA3CDD74EE677A27EE30
:10B4A000A75AF0EE632AE5EE032A9FED3C7AA5EE5B
:10B4B000227A65EE274AB8EE005AE4EE877A67EE04
:10B4C000857A87EE887A0132AA4203F1280343ED98
:10B4D000048A03ED037A03ED017A43ED028A83EDDA
:10B4E000000AC3ED056AC3ED026AC3ED016AC3ED4C
:10B4F000046AC3ED036AFFF646AF783086427FF4F4
:10B500003AAF08F57078B8F5346F06F570767FF4C9
:10B510002EAF70E69FED227AF4EEC77AF1EE10FAC4
:10B5200048BF75EEE77ABAE7F0EE667AC9E79FEDB5
:10B530001C5AF4EEC57AF1EE10FA48BF75EEE77AC0
:10B540005DE7B7EE000AF0EE408AB0EE408A72E79F
:10B55000083C002083F9223EBD37863555555540BD
:10B560006E12833A48E1FA3E0060EA4827D4D236A8
:10B570000AD7233C00004842DB0F4940DB0F49C09B
:10B58000DB0FC93F92E741B99730083C000000004B
:10B59000DB0FC940E4CB1641E4CB16C115A82ABE87
:10B5A000DB0FC9BF102B0020E47A00202DE9F04FFB
:10B5B00007EE900A2DED068B9FEDE87ADFF8EC831D
:10B5C000DFEDE76AB8F8083198F80E51C8F81C5159
:10B5D000F8EE679A0AEE103A87EE295AB8F80A315F
:10B5E000E04CC8F86001002283B0C8F8202104F2C2
:10B5F000FC6B08EE903AB8F80C31DFEDDB7ADFED4A
:10B60000DB3ADFEDDB4A9FEDDB6AD8EDF5AAB8EE59
:10B610004AAA09EE103A3AEE0A7AF8EEE88AB8EE4B
:10B62000C99AF4EEC78A69EE277AF1EE10FAB4EE01
:10B63000E65AB8BFF0EE478AF1EE10FAC8ED447A48
:10B6400058BF07EE905AF6EE005A58BFF8EEE77A68
:10B6500065EE256A59BFB7EE007A87EE278AC8F8EB
:10B660001C21154698F8D42A86EEA87AF7EE007ABF
:10B67000B4EEE77A48BF9FEDC08A88ED45AAF1EEA7
:10B6800010FAB8BFB0EE677ABDEEC77AB0EE004AE6
:10B690008DED017AB8EEC77A29EE866AC5EE076AA3
:10B6A000019BC8F8BC3387EE875A66EEA36AC8EDE3
:10B6B000468A8AEE267AC8EEA67A37EE257A77EEA3
:10B6C000A57AB4EEC47AF1EE10FAF4EEE47AB8BFDB
:10B6D000B0EE447AF1EE10FA88BFF0EE647ABDEE77
:10B6E000C77AFDEEE77A17EE106A17EE907A88EDCA
:10B6F000F05AA7EB0609C8E9F26799FBF3F9C8ED20
:10B70000F16A88EDF46A09F10109002A40F0E3804A
:10B71000DFED9A0ADFED9A5A9FED9A2A9FED9A5A29
:10B72000DFED9A2A9FEDA53ADFEDA53A9FED984A05
:10B73000DFEDA41A04F2EC6107EE902AB8EEE76A96
:10B7400066EE207A37EEA57AFDEEC76A16EE903ADD
:10B750002033402B00F20C82F3EE026AB4EEE66A6C
:10B76000F1EE10FA0CDDDFED934ADFED916AB0EEF9
:10B77000471AB4EEE61AF1EE10FA37EE647AF6DC08
:10B78000B4EEC57AF1EE10FA0CD5DFED8A4ADFEDA2
:10B790008A6AB0EE471AB4EEE61AF1EE10FA37EE06
:10B7A000247AF6D4B4EEE57AF1EE10FA40F3E381B0
:10B7B000DFED786A36EEC77A67EE076AB0EE431AB5
:10B7C000A6EEA21AB0EE630AA1EE260A67EE264A9A
:10B7D000A4EE807A27EE047AFDEEE76A16EE903A40
:10B7E0002033402B00F2C181DFED6B6AB4EEE66AD4
:10B7F000F1EE10FA40F3ED819FED6E0A9FED6C1AA9
:10B80000F0EE676AF0EE664AF4EEC14AF1EE10FA25
:10B8100076EEC06AF6DC9FED5F1AF4EEC14AF1EEF7
:10B8200010FA13D59FED631ADFED634AB0EE660A96
:10B83000B4EEE40AF1EE10FA76EE816AF6D4DFEDAA
:10B84000566AB4EEE66AF1EE10FA0CDD9FED596A25
:10B85000DFED576AF0EE674AF4EEE64AF1EE10FAD1
:10B8600077EEC67AF6DCF4EEC57AF1EE10FA0CD576
:10B870009FED506ADFED506AF0EE674AF4EEE64A5B
:10B88000F1EE10FA77EE867AF6D4F4EEE57AF1EE80
:10B8900010FA40F37881DFED3F6A76EEE77A67EEE3
:10B8A000A76AF0EE434AE6EEA24AB0EE631AA4EEAF
:10B8B000A61A27EEA66AE6EE017A67EE847A0132CE
:10B8C000242A81ED007AC1ED017A01F108017FF4AB
:10B8D00033AFDFED32AA4FF0000A019B44F80C7C35
:10B8E00044E9029344E905A64FF4907200212046F2
:10B8F00052F07FFD4FF49072A018002104F51574EA
:10B9000052F077FDA345E8D1DFED257AC8EDF5AA21
:10B91000012269EEA79A88F8D42A002D00F0208130
:10B92000DFED207A204E9FED1B1ADFED172A9FEDE9
